:100DA2001008000000000000000000000000000029
:080DB2000000011B09011808F3
:10080000120EDF120E4F7F80120C75120CF67F81D4
:10081000120D7E120D567FE87E03120E21E516643E
:100820000170197F01120E9B120BC47FD07E07123C
:100830000E217F01120E9BE4F51680E1E51764019D
:1008400070197F01120E9B120E637FD07E07120E6D
:10085000217F01120E9BE4F51780E1E5146401701D
:10086000AD120ED8E51C4480FD7F80120ED0120E12
:10087000BB120D567F0F120E9BE5167011E5177017
:100880000DFDAF18120E897FE87E03120E21E518C8
:1008900024FE601824FE601A14601D24FE601F14DC
:1008A0006025240770287D027F8480167D027F8466
:1008B00080197D017F82800A7D017F82800DE4FDA9
:1008C0007F80120B668007E4FD7F80120C1EE5120C
:1008D0006401700C1518E5187003751808E4F5121A
:1008E000E5136401700E0518E518640970037518A6
:1008F00001E4F513E5166401600302097DF5177F35
:1009000001120E9B120BC47D01AF1B120E897FE8F2
:100910007E03120E21E51B24FD601824FE601A14CC
:10092000601D24FE601F146025240770287D067F4B
:100930008C80167D067F8C80197D047F88800A7DDF
:10094000047F88800D7D037F86120B6680077D0300
:100950007F86120C1EE5126401700E151BE51B64E8
:10096000017003751B09E4F512E5136401700E05AF
:100970001BE51B640A7003751B02E4F513E517649D
:10098000017039F5167F01120E9B120E63E4FD7F94
:100990000F120E897FE87E03120E2174082519F8C4
:1009A000E664017017120ED8851921AD217F8A12D5
:1009B0000ED0120EBB74082519F8E4F6E515640193
:1009C000600302085B7F01120E9B120ED8E51C54D7
:1009D0007FFD7F80120ED0120EBB7F0C120E9BE4A7
:1009E000F525C3E525941074809480400302085BCC
:0B09F00074082525F8E4F6052580E7D3
:030003000209FBF4
:1009FB00C0E0C0F0C083C082C0D075D000C000C0C2
:100A0B0001C002C003C004C005C006C007120CF62B
:100A1B00EF120CD00ABC770AA87B0A8B7D0A6B7E7F
:100A2B000AB7B70AA3BB0A83BD0A63BE0AB2D70AC9
:100A3B009BDB0A7BDD0A5BDE0AADE70A93EB0A73ED
:100A4B00ED0A53EE00000ABF7519007508018064AA
:100A5B00751901750901805C751902750A018054BD
:100A6B00751903750B01804C751904750C018044C5
:100A7B00751905750D01803C751906750E018034CD
:100A8B00751907750F01802C7519087510018024D5
:100A9B00751909751101801C7512018017751301E9
:100AAB008012751401800D75150180087516018073
:100ABB0003751701D007D006D005D004D003D002A0
:0F0ACB00D001D000D0D0D082D083D0F0D0E03294
:100B66008F268D2774082519F8E66401704F741CCA
:100B76002527F8E675F00A84AFF0E51975F00AA4A2
:100B86002FF6741C2527F8E6FF75F00A84F51AEF90
:100B960075F00A84A6F0E51AC454F0FF741C2527E4
:100BA600F8EF26F6120ED8741C2527F8E6FDAF26B8
:0E0BB600120ED0120EBB74082519F8E4F622B8
:100C1E008F268D2774082519F8E664017048741C18
:100C2E002527F8E675F00A842519F6741C2527F891
:100C3E00E6FF75F00A84F51AEF75F00A84A6F0E562
:100C4E001AC454F0FF741C2527F8EF26F6120ED89E
:100C5E00741C2527F8E6FDAF26120ED0120EBB74BB
:070C6E00082519F8E4F62245
:090DBA00071C00000C02070513E0
:100E21007D7D7C00ED1D70011C144C70F7EF1F706F
:060E3100011E144E70EAE0
:010E37002298
:060DC400C292C290D2921F
:100DCA00E4FEEEC3940874809480500FC290EF132F
:0B0DDA009291D290EFC313FF0E80E750
:010DE50022EB
:100DE600E4FEEEC39408748094805011C290EFC361
:0D0DF60013FF309103430780D2900E80E57B
:010E030022CC
:080ED000120DC4AF05020DCAAA
:060EE600120DC4020DE62E
:070ED800E4FD7F8E020ED045
:0C0EBB007D807F8E120ED0C292C2902269
:020C7500AC07CA
:100C7700120ED8E4FBEBC3940774809480502E7453
:100C87001C2BF8E6FF75F00A84FAEF75F00A84A6C4
:100C9700F0EAC454F0FF741C2BF8EF26F6AF047487
:100CA7001C2BF8E6FD120ED00C0C0B80C8020EBBF5
:020D7E00AC07C0
:100D8000120ED8E4FDEDC39407748094805010AF28
:100D900004120EE6741C2DF8A6070C0C0D80E6025A
:020DA0000EBB88
:090EC7003230005765656B3A00FA
:100E4F007F38120E9B7F0C120E9B7F06120E9B7F1C
:040E5F0001020E9BE3
:100E77007580FFC2B5D2B6D2B4AF80C2B4EF20E757
:010E8700F674
:010E88002247
:100E9B00AE07120E77C2B5C2B68E80D2B4C2B422E0
:100EAB00AE07120E77D2B5C2B68E80D2B4C2B422C0
:100E8900ED7004AC078004EF2440FCEC4480FF02C1
:020E99000E9BAE
:060E0400C4540F2430FB72
:100E0A00AE07AC03ED6003430640430680AF06120B
:070E1A000E9BAF04020EABBA
:100E38008F26AA03A9050526EA120E04EA540F24F0
:070E480030FBAF26020E0A89
:100D2E008B268A278928120E89AB26AA27A9281274
:100D3E000CB760130528E5287002052714F9120C6C
:080D4E00B7FF120EAB80E22298
:100D5600AB1EE4FD7F01120E387B3A7F03120E0AAA
:100D6600AB1D7F04120E387B3A7F06120E0AE51C75
:080D7600547FFB7F07020E38D9
:100BC4007BFF7A0E79C77D01E4FF120D2EE5227FAB
:100BD40002120E04E522540F2430FB7F03120E0A86
:100BE4007B2D7F04120E0AE5207F05120E04E520FA
:100BF400540F2430FB7F06120E0A7B2D7F07120E42
:100C04000AE51FC4540F2430FB7F08120E0AE51FA7
:0A0C1400540F2430FB7F09020E0A82
:100E63007BFF7A0E79CAE4FD7F09120D2EAB217F39
:040E73000E020E3825
:070EDF00D2A8C288D2AF22A5
:100CF60075A00FE5A0540F640F60277F057E0012D4
:100D06000E21E5A0540F640F6018E5A0540FF526D8
:100D160044F0F5A0E5A054F0F527E5A054F064F002
:070D260070F8E5262527FF08
:010D2D0022A3
:03000000020ADA17
:0C0ADA00787FE4F6D8FD758128020B211E
:100CB700BB010689828A83E0225002E722BBFE023B
:090CC700E32289828A83E493226E
:100CD000D083D082F8E4937012740193700DA3A3B3
:100CE00093F8740193F5828883E4737402936860C7
:060CF000EFA3A3A380DFC7
:100AE600020800E493A3F8E493A34003F68001F21E
:100AF60008DFF48029E493A3F85407240CC8C33311
:100B0600C4540F4420C8834004F456800146F6DFDF
:100B1600E4800B0102040810204080900DA2E47EC0
:100B2600019360BCA3FF543F30E509541FFEE493D4
:100B3600A360010ECF54C025E060A840B8E493A39B
:100B4600FAE493A3F8E493A3C8C582C8CAC583CAC6
:100B5600F0A3C8C582C8CAC583CADFE9DEE780BE7E
:010DC300002F
:00000001FF
