:020000040800F2
:10000000180B002099200008290700082B0700087A
:100010002F0700083307000837070008000000001A
:100020000000000000000000000000003B07000886
:100030003D070008000000003F07000841070008D6
:10004000B3200008B3200008B3200008B320000844
:10005000B3200008B3200008B3200008B320000834
:10006000B3200008B3200008B3200008B320000824
:10007000B3200008B3200008B3200008B320000814
:10008000B3200008B3200008B3200008B320000804
:10009000B3200008B3200008B3200008B3200008F4
:1000A000B3200008B3200008B3200008B3200008E4
:1000B000B3200008B3200008AD190008B3200008E1
:1000C000B3200008B3200008B3200008B3200008C4
:1000D000B32000080D200008B3200008B32000085A
:1000E000B3200008B3200008B3200008B3200008A4
:1000F000B3200008B32000088B1B0008B3200008C1
:10010000B3200008B3200008B3200008B320000883
:10011000B3200008B3200008B3200008B320000873
:10012000B3200008B3200008B3200008B320000863
:10013000B3200008B3200008B3200008B320000853
:10014000B3200008B3200008B3200008B320000843
:10015000B3200008B3200008B3200008B320000833
:10016000B3200008B3200008B3200008B320000823
:10017000B3200008B3200008B3200008B320000813
:10018000B3200008B320000800F002F800F05CF88B
:100190000AA090E8000C82448344AAF10107DA45E2
:1001A00001D100F051F8AFF2090EBAE80F0013F0D8
:1001B000010F18BFFB1A43F00103184770420000FB
:1001C000904200000A444FF0000C10F8013B13F07D
:1001D000070408BF10F8014B1D1108BF10F8015BA0
:1001E000641E05D010F8016B641E01F8016BF9D193
:1001F00013F0080F1EBF10F8014BAD1C0C1B09D1EA
:100200006D1E58BF01F801CBFAD505E014F8016B5B
:1002100001F8016B6D1EF9D59142D6D370470000ED
:100220000023002400250026103A28BF78C1FBD8FF
:10023000520728BF30C148BF0B6070471FB503F09D
:10024000E3FC1FBD10B510BD03F0AFFC1146FFF776
:10025000F5FF00F009F803F0CDFC03B4FFF7F2FF5F
:1002600003BC01F073FE00004FF4A06001F034FF06
:100270004FF4E13001F078FEA82001F0E5FD01F037
:10028000CFFB00F067FB00F096FE00F015FF01F0D9
:10029000E0FB01F0BBFD532144F61F6000F08DFF31
:1002A000532144F61F6000F01FFF532144F61F60E6
:1002B00000F0DBFFA7214FF6FF7001F0E7FB01F034
:1002C00099FA0020FC49086040F6B83001F01EFEA3
:1002D0000623FAA20021084600F0E4FD0523F9A256
:1002E0000221002000F0DEFD0523F8A204210020F9
:1002F00000F0D8FD0020F749086006E001F093FA0D
:10030000F4480068401CF3490860F248006804287B
:10031000F4D342F2CF0140F21F3001F01BFBFFE1AA
:10032000ED48006806287AD2DFE800F003479DE335
:10033000EFEEEA48006830B9E8480830006810B9C4
:1003400001F0F5FA0DE0E5480068012807D1E3481F
:1003500008300068012802D101F0CCFA01E001F078
:1003600062FADF48B0F90000B0F5967F24DDDC4882
:10037000B0F90000B0F5AA7F1EDAD948B0F9000044
:10038000B0F5967F18DDD648B0F90000B0F5AA7F29
:1003900012DAD348B0F90000B0F5967F0CDDD048F2
:1003A000B0F90000B0F5AA7F06DA0120CA4908605A
:1003B000CC490860CC490860B1E1CB48006801280D
:1003C0003FD1C648006830B9C4480830006810B949
:1003D00001F0ADFA0AE0C1480068012806D1BF4823
:1003E00008300068012801D101F084FAC82001F02A
:1003F0008DFD0020B749086006E001F014FAB54809
:100400000068401CB3490860B24800680428F4D36F
:10041000C82001F07BFD0020B449086007E07DE1C1
:1004200001F085FAB1480068401CB0490860AF4847
:1004300000680A28F4D9C82001F068FD0020AA4904
:100440000860A6480C30006850B90220A249086034
:10045000C82001F05BFD0120A249091D086001E0F0
:1004600001F0E1F95BE19D48001D006830B99B484F
:100470000C30006810B901F03DFA0EE09748001DFD
:100480000068012807D195480C300068012802D186
:1004900001F04DFA01E001F0C6F99148B0F902000F
:1004A000B0F5967F24DD8E48B0F90200B0F5AA7F42
:1004B0001EDA8B48B0F90200B0F5967F18DD884847
:1004C000B0F90200B0F5AA7F12DA8548B0F902004F
:1004D000B0F5967F0CDD8248B0F90200B0F5AA7F36
:1004E00006DA03207C49086001207E490831086053
:1004F00015E17A48001D006840B978480C30006862
:1005000020B901F0F7F930E0C0E063E07348001D66
:100510000068012807D171480C300068012802D119
:1005200001F005FA21E06D480830006810B16B4811
:100530000068C0B901F05EF94FF47A7001F0E6FC92
:1005400000206449086006E001F07FF96148006816
:10055000401C604908605F4800680228F4D300200E
:100560006049086001E001F05EF95E48006880BB08
:100570005B48B0F90200B0F5967F2ADD5848B0F923
:100580000200B0F5AA7F24DA5548B0F90200B0F5B0
:10059000967F1EDD5248B0F90200B0F5AA7F18DA46
:1005A0004F48B0F90200B0F5967F12DD4C48B0F923
:1005B0000200B0F5AA7F0CDA042047490860002049
:1005C0004849091D08604A49C1F8AC02012049495F
:1005D0000860A4E047480068012840D13F48001D5A
:1005E000006830B93D480C30006810B901F082F95C
:1005F0000BE03A48001D0068012806D137480C304E
:100600000068012801D101F092F9C82001F07EFCB8
:1006100000203049086006E001F005F92D48006827
:10062000401C2C4908602B4800680428F4D3C820DB
:1006300001F06CFC00202D49086006E001F05AF939
:100640002A480068401C2949086028480068042896
:10065000F4D3C82001F05AFC0020264908601F4846
:100660000830006848B905201B49086001201D4971
:100670000860C82001F04AFC07E001F0D4F8641CCF
:10068000022C02D101F053F9002448E0134800681D
:1006900030B912480830006810B901F048F93CE060
:1006A0000E480068012827D10C480830006801284E
:1006B00022D101F01FF930E09882424273726F3408
:1006C0002D310000737230342D3200007374657068
:1006D0000000000000000020080000200C824142C1
:1006E00014000020A40242420C000020040000205C
:1006F00000004242100000200A48006858B909482A
:100700000830006838B9002402E001F08CF8641C5D
:10071000042CFAD301E001F086F800E000BF00BF2E
:10072000FEE5000010824142704700BFFEE700BFB7
:10073000FEE700BFFEE700BFFEE770477047704767
:10074000704700000CB500200190009076480068CA
:1007500040F480307449086000BF7348006800F4BA
:10076000003000900198401C0190009818B9019841
:10077000B0F5A04FF1D16C48006800F4003010B122
:100780000120009001E0002000900098012846D14F
:1007900065484030006840F080506349403108604F
:1007A0006248006840F44040604908605E48083094
:1007B00000685D49083108600846006840F4004060
:1007C00008600846006840F4A05008605848091FB7
:1007D0000860081F006840F08070091F086000BFB3
:1007E0005148006800F000700028F9D040F2057010
:1007F000504908604C480830006820F003004A491E
:10080000083108600846006840F00200086000BF38
:1008100045480830006800F00C000828F8D10CBDED
:1008200010B54548006840F47000434908603E48F0
:10083000006840F001003C49086000203A49083156
:100840000860394800683D490840374908603C481D
:10085000091D0860081F006820F48020091F086037
:10086000002031490C310860FFF76CFF4FF0006049
:1008700031498039086010BD70B500200022022384
:1008800000240221284D08352D6805F00C0020B108
:10089000042806D0082834D107E02A4D2A4E3560B6
:1008A00033E02A4D284E35602FE01F4D2D1D2D6859
:1008B000C5F380541C4D2D1D2D6805F03F0154B12A
:1008C000224DB5FBF1F5184E361D3668C6F3881675
:1008D00005FB06F209E01B4DB5FBF1F5124E361D86
:1008E0003668C6F3881605FB06F20F4D2D1D2D68E0
:1008F000C5F301456D1C6B00B2FBF3F5124E35607C
:1009000003E0104D104E356000BF00BF064D0835A6
:100910002D68C5F303150E4E705D0B4D2D68C54057
:10092000094E356070BD0000003802400070004084
:1009300008544007003C024088ED00E0FFFFF6FE4F
:10094000103000240024F4001C00002000127A0063
:10095000200000201CB50121022002F0CDFF4FF441
:100960004070009001208DF8040000208DF80600F2
:1009700003208DF8050001208DF80700694689489D
:1009800001F0A0FC0120884908608849C1F8A40250
:100990001CBD10B58348006820F4402081490860E0
:1009A0000846006840F48020086001207E49091D47
:1009B00008607E49C1F8A002042001F05FFA00201F
:1009C0007949091D0860042001F058FA0020774990
:1009D000C1F8A00210BD10B57248006820F4402094
:1009E000704908600846006840F4802008600020D4
:1009F0006D4908606D49C1F8A402042001F03EFA77
:100A00000120694908606949C1F8A402042001F085
:100A100035FA10BD10B500246248006820F440206B
:100A20006049086008460068086001205E49091DA9
:100A3000086001F023FA01205C49C1F8A00201F02E
:100A40001DFA07E0601CC4B2FA2C03DDFFF7C3FFF8
:100A5000012010BD54487C3800680028F2D152496A
:100A6000086000BFF5E710B500204F4908604D4809
:100A7000006820F440204B4908600846006840F4B4
:100A80008020086000204949C1F8A402022001F03A
:100A9000F5F9012044490860022001F0EFF9002037
:100AA0004249C1F8A00210BD10B500203E490860BF
:100AB0003C48006820F440203A4908600846006835
:100AC00040F48020086001203849C1F8A4020220C7
:100AD00001F0D4F9012034490860022001F0CEF978
:100AE00000203249C1F8A00210BD70B504462D485F
:100AF000006820F440202B4908600846006840F454
:100B000080200860002028490860002517E0E009DF
:100B10002549091D08606006040E022001F0AEF9A7
:100B200001202249C1F8A002022001F0A7F900200B
:100B30001D490860022001F0A1F9681CC5B2082D0A
:100B4000E5DB70BD70B5054600241648006820F44A
:100B5000402014490860084600680860002616E036
:100B6000002011490860022001F088F901200F4996
:100B7000C1F8A0026006040E0B487C38006808B17A
:100B8000601CC4B2012001F079F9701CC6B2082EB5
:100B9000E6DB15B9FFF788FF01E0FFF764FF2046A9
:100BA00070BD000000040240A0824042008040422C
:100BB00010B50446FFF7EDFE7820FFF796FFFFF72C
:100BC00029FF0020FFF791FFFFF724FF2046FFF7E2
:100BD0008CFFFFF71FFFFFF7FEFE10BD10B50446A8
:100BE000FFF7D7FE7820FFF780FFFFF713FF4020C5
:100BF000FFF77BFFFFF70EFF2046FFF776FFFFF7BB
:100C000009FFFFF7E8FE10BD70B504460D461DB1A3
:100C1000E0B2FFF7E3FF02E0E0B2FFF7C9FF70BD0B
:100C200070B50646002418E004F1B0000021FFF77B
:100C3000EBFF00210846FFF7E7FF00211020FFF738
:100C4000E3FF002505E001213046FFF7DDFF681CCA
:100C5000C5B2802DF7DB601CC4B2082CE4DB70BD8C
:100C600006E041F6650100E0491E0029FCD1401E66
:100C70000028F6D17047014605E0002001E0421C43
:100C8000D0B27B28FBDB0A00A1F10101F5D170474E
:100C900070B504460D4605F1B0000021FFF7B4FF22
:100CA000102141EA14100021FFF7AEFF04F00F00FD
:100CB0000021FFF7A9FF70BD10B500218D20FFF7BF
:100CC000A3FF00211420FFF79FFF0021AF20FFF7B3
:100CD0009BFF10BD10B500218D20FFF795FF00216F
:100CE0001020FFF791FF0021AE20FFF78DFF10BD10
:100CF00070B5002418E004F1B0000021FFF784FF74
:100D000000210846FFF780FF00211020FFF77CFF3D
:100D1000002505E001210020FFF776FF681CC5B221
:100D2000802DF7DB601CC4B2082CE4DB70BD70B50D
:100D3000002418E004F1B0000021FFF765FF002156
:100D40000846FFF761FF00211020FFF75DFF002537
:100D500005E001210846FFF757FF681CC5B2802D4A
:100D6000F7DB601CC4B2082CE4DB70BD2DE9F04752
:100D700007460E469046994600250024A8F120001B
:100D8000C5B27F2F02DD0027B01CC6B2B9F1100F2B
:100D900024D131463846FFF77BFF002408E004EBFE
:100DA0000511CD4A505C0121FFF72EFF601CC4B233
:100DB000082CF4DB701CC1B23846FFF769FF002431
:100DC00009E004EB05110831C34A505C0121FFF72B
:100DD0001BFF601CC4B2082CF3DB12E0314638461E
:100DE000FFF756FF00240AE005EB4501BB4A02EB82
:100DF0004101085D0121FFF707FF601CC4B2062C0A
:100E0000F2DBBDE8F08710B50246012000E0504358
:100E10000B00A1F10104E1B2F9D110BD2DE9FF5F92
:100E2000074691461E460E9D4FF0000A002435E00D
:100E3000301B401EC1B20A20FFF7E5FFB9FBF0F0FE
:100E40000A21B0FBF1F201FB1208BAF1000F14D134
:100E5000701EA04211DDB8F1000F0CD1AB4605EBBE
:100E6000DB71491001FB0471C8B22B4620220199A5
:100E7000FFF77CFF10E04FF0010AAB4605EBDB719A
:100E8000491001FB0471C8B208F13001CAB22B4607
:100E90000199FFF76BFF00BF601CC4B2B442C7DB0F
:100EA000BDE8FF9F2DE9F04104460F4615469846E0
:100EB00000260FE0AA5D434639462046FFF756FF5D
:100EC00004F10800C4B2782C02DD0024B81CC7B2BB
:100ED000701CC6B2A85D0028ECD1BDE8F0812DE9F8
:100EE000F04180460E461546002731464046FFF742
:100EF000CFFE00240AE07A4A02EB8511085D012149
:100F0000FFF782FE781CC7B2601CC4B2102CF2DB63
:100F1000701CC1B24046FFF7BBFE00240CE0690024
:100F2000491C6F4A02EB4111085D0121FFF76CFE7D
:100F3000781CC7B2601CC4B2102CF0DBBDE8F08195
:100F40002DE9F05F06460F4690461C46DDF828A0C6
:100F50004FF0000BE11704EB5171C910A4EBC10174
:100F600031B92046E11704EB5171C1F3C70506E022
:100F70002046E11704EB5171C910491CCDB23D4622
:100F800015E029463046FFF783FEB1460BE059468F
:100F90000BF1010B1AF801000121FFF735FE09F1F1
:100FA000010000F0FF09C145F1DB681CC5B2A54294
:100FB000E7DBBDE8F09F10B5C82000F0A7FF0021D7
:100FC000AE20FFF721FE00210846FFF71DFE00219D
:100FD0001020FFF719FE00214020FFF715FE002129
:100FE000B020FFF711FE00218120FFF70DFE002148
:100FF000FF20FFF709FE0021A120FFF705FE0021D9
:10100000A620FFF701FE0021A820FFF7FDFD00212B
:101010003F20FFF7F9FD0021C820FFF7F5FD002173
:10102000D320FFF7F1FD00210846FFF7EDFD002179
:10103000D520FFF7E9FD00218020FFF7E5FD002125
:10104000D820FFF7E1FD00210520FFF7DDFD00219D
:10105000D920FFF7D9FD0021F120FFF7D5FD0021B0
:10106000DA20FFF7D1FD00211220FFF7CDFD00218E
:10107000DB20FFF7C9FD00213020FFF7C5FD00216F
:101080008D20FFF7C1FD00211420FFF7BDFD0021D9
:10109000AF20FFF7B9FDFFF72BFE10BD10B50446DA
:1010A00000BF40210F4801F09BFB0028F9D02146EA
:1010B0000C4801F0E5FA10BD10B5A520FFF7EEFFD2
:1010C0009520FFF7EBFF3A20FFF7E8FF022000F042
:1010D0001DFF002010BD00003A3E0008123C000831
:1010E000300000200010014030B58BB004460D46A2
:1010F0000121022002F049FC0121022002F0FCFB48
:1011000002220521F84801F068F902220021F64880
:1011100001F063F902220121F34801F05EF9232076
:10112000099002208DF8280003208DF82900002066
:101130008DF82A0001208DF82B0009A9EA4801F05A
:10114000C1F8A8B2ADF818000020ADF81A00079455
:10115000ADF8200006A9E54801F04FFC6020ADF88D
:1011600004000120ADF806000220ADF810000821AF
:10117000DE4801F064FE01A9DC4801F00CFD082105
:10118000DA4801F065FE01A9D84801F051FD0821B7
:10119000D64801F06AFE01A9D44801F0AFFD08214C
:1011A000D24801F06BFE0121D04801F091FC0121F1
:1011B000CE4801F0ABFC0BB030BD30B58BB004466F
:1011C0000D460121082002F0E0FB0121084602F053
:1011D00093FB02220021C64801F0FFF80222012100
:1011E000C34801F0FAF80320099002208DF8280086
:1011F00003208DF8290000208DF82A0001208DF8A9
:101200002B0009A9BA4801F05DF8A8B2ADF81800A2
:101210000020ADF81A000794ADF8200006A9B548E3
:1012200001F0EBFB6020ADF804000120ADF80600F2
:101230000220ADF8100001A9AE4801F073FC01A92D
:10124000AC4801F0A8FC0821AA4801F0F8FD0821EB
:10125000A84801F0FDFD0121A64801F039FC01215B
:10126000A44801F053FC0BB030BD30B58BB0044640
:101270000D460121080202F088FB0121202002F026
:101280003BFB092211469C4801F0A7F84FF400707F
:10129000099002208DF8280003208DF829000020F5
:1012A0008DF82A0001208DF82B0009A9924801F041
:1012B00009F8A8B2ADF818000020ADF81A0007949C
:1012C000ADF8200006A98D4801F097FB6020ADF82D
:1012D00004000120ADF806000220ADF8100001A9BD
:1012E000864801F01FFC0821844801F0A8FD012177
:1012F000824801F0EDFB0121804801F007FC0BB0B2
:1013000030BD10B5044644F622400B2202FB140106
:10131000784801F062FD10BD10B5044644F6224045
:101320000B2202FB1401714801F057FD10BD10B5EE
:10133000044644F622400B2202FB14016B4801F0E4
:101340004EFD10BD10B5044644F622400B2202FBB0
:101350001401664801F045FD10BD10B5044644F681
:1013600022400B2202FB1401624801F034FD10BD43
:1013700010B5044644F622400B2202FB14015F48DC
:1013800001F029FD10BD70B504460D46DDB963209E
:101390005B49086011E05A480068FFF7B2FF5849FE
:1013A0000968A1F10900FFF7B7FF072000F0AEFDC3
:1013B00053480068401E52490860C4F16300504918
:1013C00009688842E7D3012D1BD163204C4908608E
:1013D00011E04B480068FFF794FF49490968A1F103
:1013E0000900FFF799FF072000F090FD44480068CE
:1013F000401C4349086004F1630041490968884280
:10140000E7D83F48006870BD70B505467DB93C48D7
:1014100004680AE02046FFF774FFA4F10900FFF713
:101420007BFF072000F072FD641C632CF2D3012DBA
:101430000FD1334804680AE02046FFF762FFA4F1A9
:101440000900FFF769FF072000F060FD641E632CB0
:10145000F2D870BD70B505460C46ACB95F2029497D
:1014600008600BE027480068FFF761FF072000F0E5
:101470004DFD24480068401E22490860C5F15F0008
:10148000204909688842EDD3012C15D15F201D4900
:1014900008600BE01B480068FFF749FF072000F0D9
:1014A00035FD18480068401C1649086005F15F00CA
:1014B000144909688842EDD81248006870BD70B5BB
:1014C00005465DB90F48046806E02046FFF72FFF88
:1014D000072000F01BFD641C5F2CF6D3012D1CD1EE
:1014E0000848046817E000000004024000040040BF
:1014F00000000240000C00400014024000200040A8
:10150000B0030020B80300202046FFF710FF07209B
:1015100000F0FCFC641E5F2CF6D870BD70B505466B
:101520000C46ACB95E20FE4908600BE0FC48006840
:10153000FFF708FF072000F0E9FCF9480068401EAB
:10154000F7490860C5F15E00F54909688842EDD3A6
:10155000012C15D15E20F24908600BE0F0480068CC
:10156000FFF7F0FE072000F0D1FCED480068401CBA
:10157000EB49086005F15E00E94909688842EDD849
:10158000E748006870BD70B505465DB9E448046879
:1015900006E02046FFF7D6FE072000F0B7FC641CEB
:1015A0005E2CF6D3012D0BD1DD48046806E0204601
:1015B000FFF7C8FE072000F0A9FC641E5E2CF6D8D9
:1015C00070BD70B505460C46CCB95520D5490860AC
:1015D0000FE0D4480068FFF7C0FED2480068FFF76C
:1015E000C7FE072000F092FCCE480068401ECD499F
:1015F0000860C5F15500CB4909688842E9D3012C40
:1016000019D15520C74908600FE0C6480068FFF7A8
:10161000A4FEC4480068FFF7ABFE072000F076FC8C
:10162000C0480068401CBF49086005F15500BD492D
:1016300009688842E9D8BB48006870BD70B50546A6
:1016400075B9B848046809E02046FFF786FE2046D1
:10165000FFF78EFE072000F059FC641C552CF3D3D5
:10166000012D0ED1AF48046809E02046FFF775FE52
:101670002046FFF77DFE072000F048FC641E552C35
:10168000F3D870BD70B505460E46012E16D155240F
:1016900010E004F10E00FFF734FE601DFFF73CFE82
:1016A0002046FFF75AFE2046FFF762FE072000F0B3
:1016B0002DFC641C05F15500A042EAD8B6B95524AA
:1016C00010E004F10E00FFF71CFE601DFFF724FE82
:1016D0002046FFF742FE2046FFF74AFE072000F0B3
:1016E00015FC641EC5F15500A042EAD370BD70B56B
:1016F00005460E46012E16D1552410E004F10E00C9
:10170000FFF7FFFD601DFFF707FE2046FFF725FEF0
:101710002046FFF72DFE642000F0F8FB641C05F165
:101720005500A042EAD8B6B9552410E004F10E00E5
:10173000FFF7E7FD601DFFF7EFFD2046FFF70DFE09
:101740002046FFF715FE642000F0E0FB641EC5F1A3
:101750005500A042EAD370BD70B505460E46012E75
:101760000FD15E2409E0201DFFF7E1FD2046FFF7C1
:10177000E9FD642000F0CAFB641C05F15E00A04294
:10178000F1D87EB95E2409E0201DFFF7D0FD204688
:10179000FFF7D8FD642000F0B9FB641EC5F15E00C0
:1017A000A042F1D370BD70B505460E46012E0FD193
:1017B0005E2409E0201DFFF7BAFD2046FFF7C2FDB9
:1017C000072000F0A3FB641C05F15E00A042F1D8E5
:1017D0007EB95E2409E0201DFFF7A9FD2046FFF732
:1017E000B1FD072000F092FB641EC5F15E00A0422F
:1017F000F1D370BD10B5AA2C01D20A3400E00A243E
:101800006320FFF77EFD5A20FFF786FD6220FFF779
:101810008EFD5E20FFF796FD5520FFF79EFD5520BB
:10182000FFF7A6FD10BD10B501211120FFF7BBFF8A
:1018300001211920FFF726FF00211120FFF7B3FF38
:1018400000211920FFF71EFF10BD10B50021162042
:10185000FFF764FE4FF47A7000F058FB0021162069
:10186000FFF7F8FD4FF47A7000F050FB0020FFF70F
:101870008AFE4FF47A7000F049FB00210A20FFF73E
:101880004DFE4FF47A7000F041FB00211E20FFF75F
:101890002EFF4FF47A7000F039FB0020FFF70FFEA7
:1018A0000020FFF770FE4FF47A7000F02FFB01214B
:1018B0001620FFF7CFFD4FF47A7000F027FB0121CF
:1018C0001620FFF72BFE4FF47A7000F01FFB01216A
:1018D0001E20FFF70CFF4FF47A7000F017FB012079
:1018E000FFF751FE0120FFF7EAFD4FF47A7000F098
:1018F0000DFB10BD10B501211020FFF754FF012191
:101900001020FFF70BFE01211920FFF73CFD0120FD
:10191000FFF739FE0120FFF777FD322004E00000D9
:10192000BC030020C003002000F0F0FA10BD10B589
:1019300000211020FFF78EFD00211920FFF741FE46
:101940000020FFF7BCFD0020FFF778FE322000F0FA
:10195000DDFA10BD7FB505460C460121042002F0DA
:1019600014F80295ADF804400020ADF80600ADF87B
:101970000C0001A9254801F040F801221146234836
:1019800001F0DCFC0121214801F0C0F81E208DF897
:10199000000001208DF8010003208DF802000120D5
:1019A0008DF80300684600F09CFB7FBD38B500242D
:1019B0000121164801F0D9FC012821D11449086001
:1019C000322000F05BFA00201249C1F8980200BFF3
:1019D0000CE018200090104830F914206006010E29
:1019E00006232D20FFF71AFA601CC4B2022CF0DB8C
:1019F0000A48006808B9012000E000200749086093
:101A00000121024801F0C2FC38BD0000000800407E
:101A1000988242420080424214000020A0024242CA
:101A20001CB50121102001F067FF4FF47F400090AA
:101A300001208DF8040000208DF8060003208DF8A9
:101A4000050002208DF8070069460E4800F03AFCB8
:101A50001CBD1CB50121082001F04EFF4FF4FC70A5
:101A6000009000208DF804008DF8060003208DF80A
:101A7000050002208DF807006946034800F022FCAB
:101A80001CBD0000001002400014024030B589B0B7
:101A900004460D460121022001F088FF01210420A7
:101AA00001F02AFF4FF47070079002208DF820009B
:101AB00003208DF8210000208DF8220001208DF8F0
:101AC000230007A9CB4800F0FDFB03220621C948EB
:101AD00000F083FC03220721C64800F07EFC0322AD
:101AE0000821C44800F079FC03220921C14800F014
:101AF00074FCADF810500020ADF812000594ADF85C
:101B0000180004A9BC4800F078FF0020ADF80000E0
:101B1000ADF802000120ADF804000020ADF8060089
:101B2000ADF808006946B44801F03EFB0420ADF86A
:101B300000006946B04801F037FB0820ADF800000E
:101B40006946AD4801F030FB0C20ADF80000694655
:101B5000A94801F029FB01221F21A74801F0EEFB53
:101B60000121A54800F0D2FF2E208DF80C000120A5
:101B70008DF80D0003208DF80E0001208DF80F0068
:101B800003A800F0AEFA09B030BD10B501219A48A3
:101B900001F0EBFB38B19948006808B9012000E07A
:101BA0000020964908601E21934801F0DEFB0028C2
:101BB00079D00221904801F0D8FBE8B39048007832
:101BC00001280DD100208E49087002218A4801F0B9
:101BD000B8F989483430006800B28A4908802FE09B
:101BE0000120874908700021834801F0AAF985483F
:101BF000B0F9000080493431096888420CD9814825
:101C000000884FF6FF71081A7B493431096808448F
:101C100000B27D49088008E077483430006879498F
:101C20000988401A00B2784908807748B0F9000066
:101C3000322190FBF1F000E002E000B2724908802E
:101C400004216D4801F091FB70B36D484078012884
:101C50000DD100206A4948700221674801F083F9DC
:101C600065483830006800B2664948802FE001209E
:101C7000634948700021604801F075F96148B0F986
:101C800002005D493831096888420ED95D484088B4
:101C90004FF6FF71081A584938310968084400B2F4
:101CA000594948800AE09DE011E053483830006807
:101CB00054494988401A00B2534948805248B0F903
:101CC0000200322190FBF1F000B24F494880082118
:101CD000494801F04AFBE8B34948807801280DD112
:101CE0000020474988700221434801F056F94248D4
:101CF0003C30006800B2434988802FE00120404911
:101D0000887000213C4801F048F93E48B0F90400D1
:101D100039493C31096888420CD93A4880884FF6E5
:101D2000FF71081A34493C310968084400B2364949
:101D3000888008E030483C30006832498988401A81
:101D400000B2314988803048B0F90400322190FB5C
:101D5000F1F000E002E000B22B4988801021264813
:101D600001F003FBF0B32648C07801280DD1002014
:101D70002349C8700221204801F029F91E4840304B
:101D8000006800B21F49C8802FE001201C49C870BC
:101D90000021194801F01BF91A48B0F9060016494C
:101DA0004031096888420CD91648C0884FF6FF7147
:101DB000081A114940310968084400B21249C88024
:101DC00008E00D48403000680E49C988401A00B24A
:101DD0000D49C8800C48B0F90600322190FBF1F0A3
:101DE00000B200E001E00849C8801F21024801F06C
:101DF000CDFA10BD0008024000040140A882424212
:101E0000D0030020C8030020140000201CB50121CD
:101E1000202001F071FD4020009001208DF8040089
:101E200000208DF8060003208DF8050002208DF8B3
:101E300007006946034800F045FA4021014800F0D8
:101E4000BFFA1CBD0014024010B504466FF0040038
:101E500000F094F9E11704EB5171C1F3C701394A5D
:101E600011701046007800EB4001C1EBC0104FF636
:101E7000FF7101EAC0003449088010BD0146314AB3
:101E800012784A434FF0E0235A6100229A611A46C1
:101E9000126942F001021A6100BF4FF0E02210699E
:101EA00000F001021AB100F48032002AF5D04FF0A0
:101EB000E022126922F001024FF0E0231A610022B1
:101EC0009A6170470146204A12884A434FF0E02346
:101ED0005A6100229A611A46126942F001021A619F
:101EE00000BF4FF0E022106900F001021AB100F4C7
:101EF0008032002AF5D04FF0E022126922F0010270
:101F00004FF0E0231A6100229A61704770B50446D1
:101F10004FF4077094FBF0F0C6B24FF4077094FBD7
:101F2000F0F100FB114085B205E04FF40770FFF7B8
:101F3000C9FF701EC6B2002EF7D115B12846FFF7B3
:101F4000C1FF70BDD4030020D6030020014600BFAE
:101F5000704700BF4C4A128802F04002002AF9D0B4
:101F6000C2B2494B9A80704710B588B0044601212F
:101F7000084601F0C1FC0121102001F017FD0722E5
:101F80000921424800F029FA07220A213F4800F0BF
:101F900024FA4FF4C060069002208DF81C008DF8E2
:101FA0001D0000208DF81E0001208DF81F0006A9DD
:101FB000364800F087F902940020ADF80C00ADF827
:101FC0000E00ADF81000ADF814000C20ADF81200B2
:101FD00002A92D4800F0A1FA01212B4800F025FBB1
:101FE000012240F22551284800F0D5FB25208DF82C
:101FF000040003208DF805008DF8060001208DF8FF
:10200000070001A800F06DF808B010BD10B540F24F
:1020100025511D4800F0FAFB10B31B4800F034FBBB
:10202000C4B21B48008800F40040C8B918480088B2
:1020300000F4804060B10A2C03D0002014490880CD
:1020400020E01348008840F400401149088019E05E
:102050000D2C06D10E48008840F480400C490880C1
:1020600010E00B480088C0F30D000A490C540848E2
:102070000088401C0649088008460088C72801DD02
:102080000020088010BD0000001001400000024048
:10209000DC030020F003002009488047094800477E
:1020A000FEE7FEE7FEE7FEE7FEE7FEE7FEE7FEE708
:1020B000FEE7FEE704480549054A064B7047000065
:1020C000210800088901000818050020180B0020CD
:1020D000180700201807002032490143324A1160D6
:1020E000704770B5002100230F22C4781CB32E4C1A
:1020F000246804F4E064C4F5E064C4F30721C1F18A
:102100000404E3B20A4144789C40E1B2847814406C
:1021100021430C07210E254C05786155047804F005
:102120001F050124AC4005786D11AD0005F1E025D7
:10213000C5F8004109E0047804F01F050124AC4013
:102140001B4D0678761145F8264070BD194A0A40A5
:102150000243154B1B1F1A60704739B1124A121DFA
:1021600012680243104B1B1D1A6006E00E4A121D36
:10217000126882430C4B1B1D1A607047042808D15B
:102180004FF0E021096941F004014FF0E0221161B4
:1021900007E04FF0E021096921F004014FF0E0224F
:1021A000116170470000FA050CED00E000E400E06A
:1021B00080E100E080FFFF1F10B50446984884428C
:1021C00008D10121084601F002FC0021012001F0A4
:1021D000FEFB76E09348844208D10121022001F001
:1021E000F6FB0021022001F0F2FB6AE08E488442F7
:1021F00008D10121042001F0EAFB0021042001F0B4
:10220000E6FB5EE08948844208D10121082001F004
:10221000DEFB0021082001F0DAFB52E08448844212
:1022200008D10121102001F0D2FB0021102001F083
:10223000CEFB46E07F48844208D10121202001F0F6
:10224000C6FB0021202001F0C2FB3AE07A4884421C
:1022500008D10121402001F0BAFB0021402001F00B
:10226000B6FB2EE07548844208D10121802001F0A0
:10227000AEFB0021802001F0AAFB22E070488442DE
:1022800008D10121801501F0A2FB0021A01501F069
:102290009EFB16E06B48844208D10121401501F0F5
:1022A00096FB0021601501F092FB0AE0664884422B
:1022B00007D10121001501F08AFB0021201501F052
:1022C00086FB10BDF0B50A4600210023002400BFA4
:1022D0003DE0012505FA01F3156805EA03049C4277
:1022E00034D105684F000326BE40B543056015791B
:1022F0004E00B5400668354305601579012D02D0C2
:102300001579022D16D185684F000326BE40B543CE
:10231000856055794E00B5408668354385604568CF
:1023200001268E40B5434560456896798E40B6B229
:1023300035434560C5684F000326BE40B543C560C0
:10234000D5794E00B540C6683543C560491C102993
:10235000BFD3F0BD4FF6FF710160002101714171E3
:102360008171C171704708B54FF480320092009AB4
:102370000A430092009AC261C161009AC261C269B7
:102380000092C269009208BD0246002013690B400A
:102390000BB1012000E0002070470146086980B2BF
:1023A00070470246002053690B400BB1012000E04A
:1023B000002070470146486980B27047018370472A
:1023C000418370470AB1018300E041837047416156
:1023D000704742694A4042617047F0B500230024CB
:1023E0004D07ED0E02FA05F3CE1000F1200555F869
:1023F00026504E07F70E0F26BE40B543CF1000F112
:10240000200646F82750CE1000F1200555F826503A
:1024100045EA0304CE1000F1200545F82640F0BD42
:10242000000002400004024000080240000C02408C
:10243000001002400014024000180240001C02403C
:1024400000200240002402400028024010B504464B
:10245000FA48844208D10121102001F0FCFA002141
:10246000102001F0F8FA57E0F548844209D1012123
:10247000480401F0DFFA00214FF4003001F0DAFAED
:102480004AE0F048844209D10121880401F0D2FADF
:1024900000214FF4802001F0CDFA3DE0EA4884426B
:1024A00009D10121C80401F0C5FA00214FF4002030
:1024B00001F0C0FA30E0E548844209D10121080565
:1024C00001F0B8FA00214FF4801001F0B3FA23E0D4
:1024D000DF48844208D10121202001F0BCFA00210C
:1024E000202001F0B8FA17E0DA48844209D101212E
:1024F000880701F09FFA00214FF0804001F09AFA1E
:102500000AE0D548844207D10121400501F092FA42
:102510000021600501F08EFA10BD2DE9FF47054648
:102520000E460024A14600BFA046B08900B100BFFE
:102530002C8A24F44054F08804432C82AC8941F264
:102540000C608443B088318908437189084304438F
:10255000AC81AC8A24F44074B0890443AC826846F0
:1025600001F0F9F8B548854202D0B948854202D158
:10257000DDF80C9001E0DDF80890A88900F4004037
:1025800040B109EBC90000EB091031684900B0FB0C
:10259000F1F707E009EBC90000EB09103168890089
:1025A000B0FBF1F76420B7FBF0F0040120096421CF
:1025B00001FB1078A88900F4004040B1322000EB04
:1025C000C800B0FBF1F000F00700044308E032203F
:1025D00000EB08106421B0FBF1F000F00F000443A1
:1025E0002C81BDE8FF874FF41651016000218180E6
:1025F000C18001810C21418100218181704710B58A
:1026000002460020108A20F470600B884C88234317
:102610008C882343CC8823431843108210BD0021AB
:10262000018041808180C180704721B1828942F45C
:102630000052828104E082894DF6FF731A40828144
:102640007047028B02F47F420283028B0A430283AB
:10265000704721B1828942F40042828103E082897D
:10266000C2F30E028281704721B1828A42F4006275
:10267000828204E0828A4FF2FF731A40828270479E
:10268000C1F308028280704701468888C0F30800C1
:102690007047028A4FF6F0731A400282028A0A4398
:1026A0000282704721B1828942F00202828104E0F5
:1026B00082894FF6FD731A408281704782894FF2FA
:1026C000FF731A40828182890A4382817047028A9D
:1026D0004FF6DF731A400282028A0A430282704771
:1026E00021B1028A42F48042028204E0028A4BF65F
:1026F000FF731A4002827047818941F00101818194
:10270000704721B1828A42F00802828204E0828A04
:102710004FF6F7731A4082827047028BD2B202835F
:10272000028B42EA01220283704721B1828A42F081
:102730002002828204E0828A4FF6DF731A4082828E
:10274000704721B1828A42F01002828204E0828ABC
:102750004FF6EF731A4082827047828A4FF6FB73FE
:102760001A408282828A0A438282704721B1828A19
:1027700042F00202828204E0828A4FF6FD731A4020
:10278000828270471AB1838A0B43838202E0838A74
:102790008B4383827047F0B5034600240026002552
:1027A000002040F66A17B94200D100BF1846C1F3B5
:1027B000421401F01F06012707FA06F5012C01D18A
:1027C0000C3004E0022C01D1103000E014301AB1BA
:1027D00007682F43076002E00768AF430760F0BD5A
:1027E00002460020B1F5007F00D100BF13880B40E6
:1027F0000BB1012000E00020704701F40072B2F537
:10280000007F00D100BFCA430280704770B5024606
:10281000002400230025002040F66A16B14200D1B2
:1028200000BFC1F3421501F01F03012606FA03F3AE
:10283000012D13D19689334017E0000000100140AC
:102840000044004000480040004C00400050004060
:102850000014014000780040007C0040022D02D1AD
:10286000168A334001E0968A33400C12012606FA9C
:1028700004F41688344013B10CB1012000E00020AC
:1028800070BD10B50022002340F66A14A14200D1A9
:1028900000BF0A1201249440A3B2DC43048010BD9F
:1028A00010B50446FE48844208D10121084601F0D3
:1028B000D2F80021012001F0CEF89DE0B4F1804F64
:1028C00008D10121084601F0B5F80021012001F0EE
:1028D000B1F891E0F348844208D10121022001F0CF
:1028E000A9F80021022001F0A5F885E0EE48844215
:1028F00008D10121042001F09DF80021042001F0FD
:1029000099F879E0E948844208D10121082001F0D2
:1029100091F80021082001F08DF86DE0E448844230
:1029200008D10121102001F085F80021102001F0CC
:1029300081F861E0DF48844208D10121202001F0C4
:1029400079F80021202001F075F855E0DA4884423A
:1029500008D10121022001F07EF80021022001F0BF
:102960007AF849E0D548844209D10121080401F0F0
:1029700072F800214FF4803001F06DF83CE0D0484F
:10298000844209D10121480401F065F800214FF487
:10299000003001F060F82FE0CA48844209D10121DB
:1029A000880401F058F800214FF4802001F053F81A
:1029B00022E0C548844208D10121402001F03AF8C4
:1029C0000021402001F036F816E0C048844208D1CA
:1029D0000121802001F02EF80021802001F02AF84A
:1029E0000AE0BB48844207D10121801501F022F89A
:1029F0000021A01501F01EF810BD00220288A84B8E
:102A000098420ED0AC4B98420BD0B0F1804F08D01A
:102A1000A44B984205D0A44B984202D0A34B9842B5
:102A200004D14FF68F731A404B881A43A04B98423B
:102A300007D0A04B984204D04FF6FF431A400B89B1
:102A40001A4302804B68C3620B880385944B9842FB
:102A500002D0994B984201D18B7A0386012383825D
:102A600070474FF0FF3141600021018001814180BA
:102A7000817270470185828270470A460021018871
:102A80004FF68F73194011430180704741627047C0
:102A9000C16270470146486A70470146088D704719
:102AA00021B1028842F00202028004E002884FF65F
:102AB000FD731A400280704721B1028842F004027F
:102AC000028004E002884FF6FB731A4002807047D0
:102AD00021B1028842F08002028004E002884FF6B1
:102AE0007F731A400280704702884FF6F7731A40CE
:102AF000028002880A430280704702884FF6FF4333
:102B00001A40028002880A430280704721B102887D
:102B100042F00102028004E002884FF6FE731A4080
:102B20000280704770B5002400220023058C4FF608
:102B3000FE7635400584028C8388048B4FF68F75B2
:102B40002C40B51E2C400D882C43751E2A408D89C3
:102B50002A434D882A43524DA84202D0564DA842DE
:102B600013D14FF6F7752A40CD892A434FF6FB75EE
:102B70002A408D882A434FF6FF652B404FF6FF55BC
:102B80002B400D8A2B434D8A2B43838004838D6811
:102B90004563028470BD70B5002400220023058CBB
:102BA0004FF6EF7635400584028C8388048B48F617
:102BB000FF752C404FF6FF452C400D884FF6FF76F1
:102BC00006EA05252C434FF6DF752A408D8906EA73
:102BD00005152A434D8806EA05152A43304DA842BB
:102BE00002D0354DA8421DD14FF67F752A40CD89C0
:102BF0004FF6FF7606EA05152A434FF6BF752A40C1
:102C00008D8806EA05152A434FF6FF352B404FF213
:102C1000FF752B400D8A06EA85052B434D8A06EA8F
:102C200085052B43838004838D688563028470BD92
:102C300070B5002400220023058C4FF6FF66354056
:102C40000584028C8388848B4FF68F752C404FF659
:102C5000FC752C400D882C434FF6FF552A408D897A
:102C60004FF6FF7606EA05252A434D8806EA052534
:102C70002A430B4DA84202D00F4DA84238D14FF243
:102C8000FF752A40CD894FF6FF7606EA05252A43CF
:102C90004FF6FF352A408D8806EA05252A4319E0BC
:102CA000000001400004004000080040000C00400B
:102CB00000100040001400400004014000400140AA
:102CC000004401400048014000180040001C004042
:102CD000002000404EF6FF752B404DF6FF752B404F
:102CE0000D8A06EA05152B434D8A06EA05152B4386
:102CF000838084838D68C563028470BD70B50022B3
:102D000000230024058C4EF6FF7635400584038CA5
:102D10008488828B48F6FF752A404FF6FF452A408B
:102D20000D884FF6FF7606EA05252A434DF6FF7516
:102D30002B408D8906EA05352B434D8806EA05357B
:102D40002B43FE4DA84202D0FD4DA84208D14BF6C0
:102D5000FF752C400D8A4FF6FF7606EA85152C4349
:102D6000848082838D680564038470BD00210180A6
:102D70004180818081608181C1810182418270476F
:102D800070B50346002000241846183001258D40F8
:102D9000ACB21D8CA5431D8409B108290AD100EBF2
:102DA000610005684FF68F7635400560056815436C
:102DB00005600FE00D1FC5F34E052844056848F671
:102DC000FF763540056005684FF6FF7606EA022675
:102DD0003543056070BD4163704781637047C163CF
:102DE0007047016470470A460021018B4FF68F73CC
:102DF00019401143018370470A460021018B48F6B0
:102E0000FF7319404FF6FF7303EA0223194301834E
:102E100070470A460021818B4FF68F73194011438A
:102E2000818370470A460021818B48F6FF73194061
:102E30004FF6FF7303EA02231943818370470A4662
:102E40000021018B4FF6F77319401143018370473E
:102E50000A460021018B4FF2FF7319404FF6FF73B2
:102E600003EA02231943018370470A460021818B3C
:102E70004FF6F77319401143818370470A460021CA
:102E8000818B4FF2FF7319404FF6FF7303EA022361
:102E90001943818370470A460021018B4FF6FB736B
:102EA00019401143018370470A460021018B4FF6F8
:102EB000FF3319404FF6FF7303EA022319430183DE
:102EC00070470A460021818B4FF6FB73194011436E
:102ED000818370470A460021818B4FF6FF331940EA
:102EE0004FF6FF7303EA02231943818370470A46B2
:102EF0000021018B4FF67F73194011430183704706
:102F00000A460021018BC1F30E014FF6FF7303EA5D
:102F100002231943018370470A460021818B4FF633
:102F20007F7319401143818370470A460021818BCA
:102F3000C1F30E014FF6FF7303EA022319438183A5
:102F400070470A460021018C4FF6FD73194011436A
:102F5000018470470A460021018C4FF6F77319402F
:102F60001143018470470A460021018C4FF6DF733C
:102F700019404FF6FF7303EA0213194301847047A7
:102F80000A460021018C4FF67F7319404FF6FF73FC
:102F900003EA02131943018470470A460021018C99
:102FA0004FF6FF5319404FF6FF7303EA022319430C
:102FB000018470470A460021018C4FF2FF731940CB
:102FC0004FF6FF7303EA02231943018470470A4650
:102FD0000021018C4DF6FF7319404FF6FF7303EA91
:102FE000023319430184704730B5002301248C401B
:102FF000A3B2048C9C430484048C02FA01F5ADB2A4
:103000002C43048430BD30B5002304248C40A3B28B
:10301000048C9C430484048C02FA01F5ADB22C4369
:10302000048430BD828B4FF2FF331A408283828B3F
:103030004FF6FF7303EA01231A4382837047F0B50A
:103040000C461546002100220026078C4EF6FF7C18
:1030500007EA0C070784818B028C4FF6FF7707EA9B
:10306000043640F6FF4739404FF6FF7707EA052759
:1030700039434FF6FF7707EA0337394345F6FF77C1
:103080003A4046F480573A4381830284F0BD828BF4
:103090004FF6F3731A408283828B0A438283704710
:1030A000F0B50C461546002100220026078C4FF68D
:1030B000FF6C07EA0C070784818B028C4FF6FF77C1
:1030C00007EA04264FF60C7739404FF6FF7707EAF8
:1030D00003172F4339434FF2FF573A4046F48077A6
:1030E0003A4381830284F0BD028B4FF2FF331A40D2
:1030F0000283028B4FF6FF7303EA01231A43028314
:103100007047F0B50C461546002100220026078CBA
:103110004FF6EF7C07EA0C070784018B028C4FF611
:10312000FF7707EA041640F6FF4739404FF6FF776E
:1031300007EA033739434FF6FF7703E00000014009
:103140000004014007EA052739434FF65F773A400C
:1031500046F010073A4301830284F0BD028B4FF61C
:10316000F3731A400283028B0A4302837047F0B55F
:103170000C46154600210022068C4FF6FE773E4095
:103180000684018B028C4FF60C7631407E1C06EAD9
:1031900003162E4331434FF6F576324044F00106D4
:1031A000324301830284F0BD70B505460C46208889
:1031B00050B92389A28861882846FFF7D8FFE188A3
:1031C0002846FFF7CBFF25E0208804280AD1238971
:1031D000A28861882846FFF794FFE1882846FFF718
:1031E00083FF17E0208808280AD12389A2886188F4
:1031F0002846FFF755FFE1882846FFF748FF09E01A
:103200002389A28861882846FFF719FFE1882846AC
:10321000FFF708FF70BD00210180418001218180FE
:103220000021C180018170472DE9F04105460C461F
:1032300000260127608808B9022600E00026A08841
:10324000012801D1022700E001272088A0B92389A5
:10325000A28861882846FFF78AFFE1882846FFF7A1
:103260007DFF23893A4631462846FFF74AFFE18829
:103270002846FFF739FF13E02389A2886188284692
:10328000FFF73FFFE1882846FFF72EFF23893A46E4
:1032900031462846FFF76BFFE1882846FFF75EFFBF
:1032A000BDE8F0810146486B70470146886B704766
:1032B0000146C86B70470146086C70470A884B8806
:1032C0001A438B881A43CB881A430B891A434B89BC
:1032D0001A438B891A43A0F84420704700210180CB
:1032E00041808180C180018141818181704731B1FC
:1032F000B0F8442042F40042A0F8442005E0B0F8C1
:103300004420C2F30E02A0F84420704721B1828805
:1033100042F00402828004E082884FF6FB731A4078
:103320008280704721B1828842F00102828004E0ED
:1033300082884FF6FE731A40828070471AB18389E3
:103340000B43838102E083898B43838170478182B1
:10335000704702460020138A0B400BB1012000E0A9
:1033600000207047CA430282704730B502460020F1
:1033700000230024158A05EA0103958905EA010462
:1033800013B10CB1012000E0002030BDCA4302821D
:10339000704741EA0203A0F8483070471AB18389A8
:1033A0000B43838102E083898B438381704721B182
:1033B000828842F00802828004E082884FF6F77328
:1033C0001A408280704701894FF6F87211400181DE
:1033D00070470A46002101894FF68F731940114347
:1033E0000181704730B504460D4629462046FFF757
:1033F000F0FF208940F00700208130BD2DE9F04129
:1034000004460D4616461F46602D06D13B46012256
:1034100031462046FFF775FE05E03B460122314666
:103420002046FFF7A4FE29462046FFF7D2FF208959
:1034300040F007002081BDE8F08130B50C46002146
:103440000189C9B24FF6FF7505EA032515432543E7
:103450002943018130BD2DE9F04105460E4617464E
:103460009846002443463A4631462846FFF7E5FF92
:103470002C894FF6F870044044F007044FF68F7023
:10348000044044F070042C81BDE8F081F0B504469E
:103490000D4616461F463B46324629462046FFF754
:1034A000CCFF208940F480402081F0BD82884FF617
:1034B0008F731A40828082880A4382807047028913
:1034C0004FF6F8731A40028102890A43028170475D
:1034D00002894FF67F731A40028102890A430281F2
:1034E0007047F0B50C4615461E4600210022002309
:1034F0000189028B038C4FF6F877394021434FF650
:10350000FC473A4040F201173A434FF6DD773B4023
:103510004FF6FF7707EA06172F433B4301810283EB
:103520000384F0BD21B1828842F08002828004E0F1
:1035300082884FF67F731A4082807047A0F850103F
:1035400070470000F948006840F00100F749086042
:103550000020F64908310860F4480068F449084042
:10356000F2490860F348091D0860F348EF498431C7
:103570000860F0481038091D0860EC48006820F425
:103580008020EA4908600020E8490C310860E749DA
:103590008C31086070470021E44A921C117011467A
:1035A0000870704710B501460022002300204A1120
:1035B000012A02D1DD4C236808E0022A03D1DB4C4A
:1035C0007034236802E0D94C7434236801F01F0280
:1035D000012494401C400CB1012000E0002010BDEB
:1035E00038B5002000900024002500BF3120FFF7EF
:1035F000D9FF05460098401C00900098B0F5A04FF8
:1036000001D0002DF2D03120FFF7CCFF08B101240A
:1036100000E00024204638BD01460020C34A10685F
:1036200020F0F80040EAC10010607047C34908600C
:1036300070470021BD4A703211701170012802D00C
:1036400004280AD104E00121B84A7032117005E063
:103650000521B64A7032117000E000BF00BF70470C
:10366000B7490860704770B5049C41EA821501268D
:10367000C6EB530645EA0645054345EA0465AB4EED
:10368000361D356070BDAD4908667047820142EA5B
:103690000172A64B84331A607047A8498866704748
:1036A00010B5830143EA016343EA02739F4C8834F7
:1036B000236010BDA14908677047A049C8647047DE
:1036C00002460020994B0833186820F0EC6042EA6B
:1036D00001031843954B08331860704702460020D9
:1036E000924B0833186820F0784042EA01031843EF
:1036F0008E4B083318607047014600208B4A083211
:10370000106820F0030008431060704787480830B5
:10371000006800F00C00704701460020834A083220
:10372000106820F0F0000843106070470146002048
:103730007E4A0832106820F4E05008431060704759
:1037400001460020794A0832106820F4604040EABF
:10375000C10010607047F0B500210022002402254E
:1037600000260223714F08373F6807F00C0121B192
:10377000042905D0082937D105E0724F076036E0EB
:10378000714F076033E0694F3F1D3F68C7F38056B4
:10379000664F3F1D3F6807F03F036EB16A4FB7FBAE
:1037A000F3F7DFF888C10CF1040CDCF800C0CCF3AF
:1037B000881C07FB0CF40CE0624FB7FBF3F7DFF853
:1037C0006CC10CF1040CDCF800C0CCF3881C07FBC6
:1037D0000CF4564F3F1D3F68C7F301477F1C7D0027
:1037E000B4FBF5F7076002E0564F076000BF00BF6B
:1037F0004E4F08373F6807F0F0010909534F7A5CD4
:103800000768D7404760494F08373F6807F4E051E1
:10381000890A4E4F7A5C4768D7408760434F083724
:103820003F6807F46041490B484F7A5C4768D740CE
:10383000C760F0BD002100F44072B2F5407F0AD1AC
:103840003A4A0832116821F4F811414A0240114302
:10385000364A08321160354A70321268C0F30B03E1
:103860001A43324B70331A60704735494439086047
:1038700070473349403908607047364908607047DF
:1038800001460020294A8C32106820F01F004A1E91
:103890001043264A8C321060704701460020234AAC
:1038A0008C32106820F4F8504A1E40EA02201F4A69
:1038B0008C3210607047014600201C4A8C32106820
:1038C00020F4401008431060704701460020174A5A
:1038D0008C32106820F440000843106070470146A5
:1038E0000020124A8C32106820F4403008431060E7
:1038F000704719490860704739B10C4A3032126874
:1039000002430A4B30331A6006E0084A303212682C
:103910008243064B30331A607047F9B1034A3432A0
:1039200012680243014B34331A601CE00038024035
:10393000FFFFF6EA1030002400300020000047426C
:10394000800E47420024F40000127A00DE030020BB
:10395000FFFCFF0F5C014742E01147428F4A1268AB
:1039600082438E4B1A60704739B18C4A121D12681F
:1039700002438A4B1B1D1A6006E0884A121D12681A
:103980008243864B1B1D1A60704739B1834A0C3243
:1039900012680243814B0C331A6006E07F4A0C32F6
:1039A000126882437D4B0C331A60704739B17B4AF1
:1039B000103212680243794B10331A6006E0774ADE
:1039C000103212688243754B10331A60704739B158
:1039D000724A243A12680243704B243B1A6006E094
:1039E0006E4A243A126882436C4B243B1A6070473B
:1039F00039B16A4A203A12680243684B203B1A6088
:103A000006E0664A203A12688243644B203B1A6003
:103A1000704739B1614A1C3A126802435F4B1C3B44
:103A20001A6006E05D4A1C3A126882435B4B1C3BFD
:103A30001A60704739B1594A143A12680243574B19
:103A4000143B1A6006E0554A143A12688243534BFD
:103A5000143B1A60704739B1504A103A1268024359
:103A60004E4B103B1A6006E04C4A103A12688243F3
:103A70004A4B103B1A60704739B1484A1C321268F1
:103A80000243464B1C331A6006E0444A1C3212685B
:103A90008243424B1C331A60704739B13F4A20328F
:103AA000126802433D4B20331A6006E03B4A203245
:103AB00012688243394B20331A60704739B1374A54
:103AC000243212680243354B24331A6006E0334A2D
:103AD000243212688243314B24331A60704739B163
:103AE0002E4A2C32126802432C4B2C331A6006E00B
:103AF0002A4A2C3212688243284B2C331A607047B2
:103B000039B1264A303212680243244B30331A60EE
:103B100006E0224A303212688243204B30331A606A
:103B20007047012808D11D493C31096841F008015E
:103B30001A4A3C32116007E018493C31096821F00B
:103B40000801164A3C321160704739B1134A273ACE
:103B500012780243114B273B1A7006E00F4A273AAE
:103B6000127882430D4B273B1A7070470B48403048
:103B7000006840F080700949403108607047014694
:103B80000020064A283A12680A400AB1012000E0E3
:103B900000207047014926390870704734380240C8
:103BA00070477047704770477047754600F028F8B7
:103BB000AE4605006946534620F00700854618B01A
:103BC00020B5FEF777FABDE820404FF000064FF031
:103BD00000074FF000084FF0000B21F00701AC4642
:103BE000ACE8C009ACE8C009ACE8C009ACE8C00961
:103BF0008D4670470446AFF300802046FCF72DFB4E
:103C000000487047B80400204FF04070E1EE100A01
:103C100070470000000000000000002F00000000BE
:103C20000700070000147F147F1400242A7F2A1243
:103C30000062640813230036495522500000050332
:103C4000000000001C224100000041221C00001462
:103C5000083E08140008083E0808000000A06000A4
:103C60000008080808080000606000000020100834
:103C70000402003E5149453E0000427F40000042A0
:103C800061514946002141454B31001814127F1003
:103C9000002745454539003C4A4949300001710932
:103CA000050300364949493600064949291E0000E6
:103CB000363600000000563600000008142241008D
:103CC00000141414141400004122140800020151BD
:103CD000090600324959513E007C1211127C007FC6
:103CE00049494936003E41414122007F4141221C61
:103CF000007F49494941007F09090901003E4149C6
:103D0000497A007F0808087F0000417F41000020B9
:103D100040413F01007F08142241007F4040404065
:103D2000007F020C027F007F0408107F003E4141AB
:103D3000413E007F09090906003E4151215E007F96
:103D4000091929460046494949310001017F01010D
:103D5000003F4040403F001F2040201F003F4038B0
:103D6000403F0063140814630007087008070061EF
:103D70005149454300007F41410000552A552A55CD
:103D8000000041417F000004020102040040404065
:103D90004040000001020400002054545478007F89
:103DA0004844443800384444442000384444487F60
:103DB00000385454541800087E0901020018A4A4C5
:103DC000A47C007F080404780000447D400000408B
:103DD00080847D00007F102844000000417F400067
:103DE000007C04180478007C0804047800384444FB
:103DF000443800FC242424180018242418FC007CD7
:103E00000804040800485454542000043F4440204F
:103E1000003C4040207C001C2040201C003C4030E6
:103E2000403C004428102844001CA0A0A07C004472
:103E300064544C44141414141414000000000000C2
:103E400000000000000000000000000000F800007A
:103E50000000000000333000000000100C06100CC1
:103E60000600000000000000000040C07840C0785C
:103E70004000043F04043F040400007088FC083044
:103E80000000001820FF211E0000F008F000E018DC
:103E9000000000211C031E211E0000F00888700095
:103EA00000001E2123241927211010160E000000E7
:103EB00000000000000000000000000000E0180406
:103EC0000200000000071820400000020418E00073
:103ED00000000040201807000000404080F08040B3
:103EE00040000202010F01020200000000F0000089
:103EF00000000101011F010101000000000000009D
:103F0000000080B070000000000000000000000011
:103F1000000000010101010101010000000000009A
:103F20000000003030000000000000000000806051
:103F30001804006018060100000000E010080810D6
:103F4000E000000F102020100F00001010F80000FB
:103F500000000020203F2020000000700808088892
:103F60007000003028242221300000300888884862
:103F700030000018202020110E000000C02010F892
:103F8000000000070424243F240000F80888880863
:103F900008000019212020110E0000E01088881868
:103FA0000000000F112020110E0000380808C8384A
:103FB00008000000003F000000000070880808882A
:103FC0007000001C222121221C0000E010080810B3
:103FD000E0000000312222110F00000000C0C000EC
:103FE00000000000003030000000000000800000F1
:103FF00000000000806000000000000080402010F1
:1040000008000001020408102000404040404040E9
:10401000400004040404040404000008102040804C
:104020000000002010080402010000704808080881
:10403000F0000000003036010000C030C828E81051
:10404000E0000718272423140B000000C038E0000C
:104050000000203C23020227382008F88888887056
:104060000000203F202020110E00C0300808080862
:104070003800071820202010080008F80808081049
:10408000E000203F202020100F0008F88888E80872
:104090001000203F20202320180008F88888E80816
:1040A0001000203F200003000000C030080808383E
:1040B000000007182020221E020008F8080000084F
:1040C000F808203F210101213F20000808F80808D6
:1040D00000000020203F2020000000000808F80811
:1040E0000800C08080807F00000008F888C0281881
:1040F0000800203F20012638200008F808000000B2
:104100000000203F20202020300008F8F800F8F8B8
:104110000800203F003F003F200008F830C00008A2
:10412000F808203F200007183F00E010080808109A
:10413000E0000F10202020100F0008F808080808E1
:10414000F000203F210101010000E01008080810E4
:10415000E0000F18242438504F0008F88888888819
:104160007000203F2000030C3020007088080808F1
:1041700038000038202121221C00180808F80808FF
:1041800018000000203F2000000008F80800000888
:10419000F808001F202020201F000878880000C891
:1041A0003808000007380E010000F80800F8000881
:1041B000F800033C0700073C03000818688080688B
:1041C000180820302C03032C30200838C800C838C9
:1041D00008000000203F2000000010080808C83830
:1041E00008002038262120201800000000FE0202CE
:1041F00002000000007F40404000000C30C0000082
:104200000000000000010638C00000020202FE00AB
:104210000000004040407F00000000000402020255
:10422000040000000000000000000000000000008A
:104230000000808080808080808000020204000076
:10424000000000000000000000000000808080806E
:1042500000000019242222223F2008F8008080005C
:104260000000003F112020110E000000008080801F
:104270000000000E11202020110000000080808826
:10428000F800000E112020103F2000008080808068
:104290000000001F222222221300008080F0888864
:1042A00088180020203F20200000000080808080AF
:1042B0008000006B94949493600008F800808080E4
:1042C0000000203F210000203F200080989800003F
:1042D00000000020203F202000000000008098986F
:1042E000000000C08080807F000008F8000080800F
:1042F0008000203F24022D302000000808F8000034
:1043000000000020203F20200000808080808080EE
:104310008000203F20003F20003F80800080808080
:104320000000203F210000203F200000808080808E
:104330000000001F202020201F00808000808000BF
:10434000000080FFA12020110E000000008080806E
:104350008000000E112020A0FF80808080008080DF
:10436000800020203F21200001000000808080800C
:1043700080000033242424241900008080E0808001
:1043800000000000001F202000008080000000804E
:104390008000001F202020103F20808080000080AF
:1043A000808000010E3008060100808000800080BF
:1043B00080800F300C030C300F0000808000808064
:1043C00080000020312E0E3120008080800000808F
:1043D000808080818E70180601000080808080803F
:1043E00080000021302C2221300000000000807C61
:1043F000020200000000003F404000000000FF00FB
:10440000000000000000FF0000000002027C8000AD
:1044100000000040403F00000000000601010202D1
:104420000404000000000000000000004C440008EC
:1044300000000020F0030000C4010008D44500087B
:10444000F00300202807000020020008011D847AE4
:10445000030A200901020304060708091BF01001E2
:104460002AFF050215F01B0F04012AFF0502130F96
:1044700018094040405F55555575041A5F0C0911E5
:1044800021080C11200F094989790909090F201FFA
:10449000112FFE02424ACA4A0304134202FE000ED2
:1044A00014FF40504C4340404F50505C40FF1BF8BD
:1044B00088012AFF050215F81B1F08012A7F200B1F
:1044C000109F80E23B808201000916E2A2928A8658
:1044D000828080041840807F172424A4FEA3221B1E
:1044E00022CCAA011415080601FF2B0104010511B5
:1044F000FF0202025808101010FF109008C30211AA
:1045000008080F100444827F01808040432C10284B
:104510004681A018094040484848C8784F0605150C
:10452000484840400009150312122222528A063CD4
:10453000106080BA19040B11C030FB1E404043408C
:104540007F061C7F424106094FC02941080B11100C
:10455000D030FF30D0121C10101F3D080402019E05
:104560000D1101020408211116FE222222FE07125B
:10457000FE828292A29E100880601F0242827F0FFC
:1045800011FF402F102C438011000B1490884C57C2
:10459000A42454548C84180801018042221A074430
:1045A0001D423E01018AF9E1000D14E4242CB425DA
:1045B0002624B42C24E404180AFF02011E1212124D
:1045C0001E418601321974D9752D01020304042598
:0445D00006070809C9
:040000050800018965
:00000001FF
