:100B0F0054696D653A00446174653A007765656BA9
:020B1F003A009A
:10097400120B91120B8A120AFB7F801209C97F8124
:10098400120A337BFF7A0B790FE4FDFF120A0BABDB
:1009940013E4FD7F06120A977B3AE4FD7F08120AEE
:1009A400E4AB12E4FD7F09120A977B3AE4FD7F0B66
:1009B400120AE4AB11E4FD7F0C120A977FE87E0370
:0509C400120ACD80B90C
:0300030002088C64
:10088C00C0E0C0F0C083C082C0D075D000C000C032
:10089C0001C002C003C004C005C006C0077F01121E
:1008AC000B457BFF7A0B79157D01E4FF120A0BAB2C
:1008BC00177D017F06120A977B2D7D017F08120A96
:1008CC00E4AB157D017F09120A977B2D7D017F0B0F
:1008DC00120AE4AB147D017F0C120A977FE87E03A9
:1008EC00120ACD30B2057F01120B45D007D006D0CD
:1008FC0005D004D003D002D001D000D0D0D082D00B
:06090C0083D0F0D0E032C0
:03001300020912CD
:10091200C0E0C0F0C083C082C0D075D000C000C0AB
:1009220001C002C003C004C005C006C0077F011297
:100932000B457BFF7A0B791B7D01E4FF120A0BAB9F
:10094200167D017F06120A977FE87E03120ACD30D8
:10095200B3057F01120B45D007D006D005D004D0D5
:1009620003D002D001D000D0D0D082D083D0F0D03A
:02097200E03271
:090B7100071100000C0207021339
:100ACD007D7D7C00ED1D70011C144C70F7EF1F70C7
:060ADD00011E144E70EA38
:010AE30022F0
:060A5700C292C290D2928F
:100A5D00E4FEEEC3940874809480500FC290EF139F
:0B0A6D009291D290EFC313FF0E80E7C0
:010A7800225B
:100A7900E4FEEEC39408748094805011C290EFC3D1
:0D0A890013FF309103430780D2900E80E5EB
:010A9600223D
:080B7B00120A57AF05020A5DE2
:060B9800120A57020A795F
:070B8300E4FD7F8E020B7BF5
:0C0B65007D807F8E120B7BC292C290221A
:0209C900AC0779
:1009CB00120B83E4FBEBC3940774809480502E745A
:1009DB00112BF8E6FF75F00A84FAEF75F00A84A67E
:1009EB00F0EAC454F0FF74112BF8EF26F6AF047441
:1009FB00112BF8E6FD120B7B0C0C0B80C8020B6560
:020A3300AC070E
:100A3500120B83E4FDEDC39407748094805010AFCE
:100A450004120B9874112DF8A6070C0C0D80E60204
:020A55000B652F
:100AFB007F38120B457F0C120B457F06120B457F7F
:040B0B0001020B4593
:100B21007580FFC2B5D2B6D2B4AF80C2B4EF20E7B0
:010B3100F6CD
:010B320022A0
:100B4500AE07120B21C2B5C2B68E80D2B4C2B42292
:100B5500AE07120B21D2B5C2B68E80D2B4C2B42272
:100B3300ED7004AC078004EF2440FCEC4480FF021A
:020B43000B4560
:100AE400AE07AC03ED6003430640430680AF061235
:070AF4000B45AF04020B5596
:100A97008F0EAA03A905050EEAC4540F2430FB12D2
:0D0AA7000AE4EA540F2430FBAF0E020AE40B
:100A0B008B0E8A0F8910120B33AB0EAA0FA9101283
:100A1B000AB460130510E5107002050F14F9120AE1
:080A2B00B4FF120B5580E2221A
:070B8A00D2B2D2B3C2B722C0
:070B9100D2A8D2AAD2AF22C4
:03000000020800F3
:0C080000787FE4F6D8FD758117020847E8
:100AB400BB010689828A83E0225002E722BBFE0240
:090AC400E32289828A83E4932273
:10080C00020974E493A3F8E493A34003F68001F285
:10081C0008DFF48029E493A3F85407240CC8C333ED
:10082C00C4540F4420C8834004F456800146F6DFBC
:10083C00E4800B0102040810204080900B71E47ED0
:10084C00019360BCA3FF543F30E509541FFEE493B1
:10085C00A360010ECF54C025E060A840B8E493A378
:10086C00FAE493A3F8E493A3C8C582C8CAC583CAA3
:10087C00F0A3C8C582C8CAC583CADFE9DEE780BE5B
:010B7A00007A
:00000001FF
